{
  "_format": "hh-sol-artifact-1",
  "contractName": "ExampleContract",
  "sourceName": "contracts/ExampleContract.sol",
  "abi": [
    {
      "anonymous": false,
      "inputs": [
        {
          "indexed": false,
          "internalType": "uint256",
          "name": "amount",
          "type": "uint256"
        }
      ],
      "name": "Deposit",
      "type": "event"
    },
    {
      "anonymous": false,
      "inputs": [
        {
          "components": [
            {
              "internalType": "string",
              "name": "username",
              "type": "string"
            },
            {
              "components": [
                {
                  "internalType": "string",
                  "name": "title",
                  "type": "string"
                },
                {
                  "internalType": "string",
                  "name": "content",
                  "type": "string"
                }
              ],
              "internalType": "struct ExampleContract.Message",
              "name": "message",
              "type": "tuple"
            }
          ],
          "indexed": false,
          "internalType": "struct ExampleContract.Post",
          "name": "post",
          "type": "tuple"
        }
      ],
      "name": "NewPost",
      "type": "event"
    },
    {
      "anonymous": false,
      "inputs": [
        {
          "indexed": false,
          "internalType": "string",
          "name": "oldTitle",
          "type": "string"
        },
        {
          "indexed": false,
          "internalType": "string",
          "name": "newTitle",
          "type": "string"
        }
      ],
      "name": "TitleChanged",
      "type": "event"
    },
    {
      "anonymous": false,
      "inputs": [
        {
          "indexed": false,
          "internalType": "uint256",
          "name": "amount",
          "type": "uint256"
        }
      ],
      "name": "Withdraw",
      "type": "event"
    },
    {
      "inputs": [
        {
          "components": [
            {
              "internalType": "string",
              "name": "username",
              "type": "string"
            },
            {
              "components": [
                {
                  "internalType": "string",
                  "name": "title",
                  "type": "string"
                },
                {
                  "internalType": "string",
                  "name": "content",
                  "type": "string"
                }
              ],
              "internalType": "struct ExampleContract.Message",
              "name": "message",
              "type": "tuple"
            }
          ],
          "internalType": "struct ExampleContract.Post",
          "name": "post",
          "type": "tuple"
        }
      ],
      "name": "addPost",
      "outputs": [],
      "stateMutability": "nonpayable",
      "type": "function"
    },
    {
      "inputs": [
        {
          "internalType": "address",
          "name": "",
          "type": "address"
        }
      ],
      "name": "balances",
      "outputs": [
        {
          "internalType": "uint256",
          "name": "",
          "type": "uint256"
        }
      ],
      "stateMutability": "view",
      "type": "function"
    },
    {
      "inputs": [],
      "name": "depositAmount",
      "outputs": [],
      "stateMutability": "payable",
      "type": "function"
    },
    {
      "inputs": [],
      "name": "getDuo",
      "outputs": [
        {
          "internalType": "string[2]",
          "name": "",
          "type": "string[2]"
        }
      ],
      "stateMutability": "view",
      "type": "function"
    },
    {
      "inputs": [],
      "name": "getNumberList",
      "outputs": [
        {
          "internalType": "uint256[]",
          "name": "",
          "type": "uint256[]"
        }
      ],
      "stateMutability": "view",
      "type": "function"
    },
    {
      "inputs": [],
      "name": "isCovidGoneYet",
      "outputs": [
        {
          "internalType": "bool",
          "name": "",
          "type": "bool"
        }
      ],
      "stateMutability": "view",
      "type": "function"
    },
    {
      "inputs": [
        {
          "internalType": "uint256",
          "name": "",
          "type": "uint256"
        }
      ],
      "name": "posts",
      "outputs": [
        {
          "internalType": "string",
          "name": "username",
          "type": "string"
        },
        {
          "components": [
            {
              "internalType": "string",
              "name": "title",
              "type": "string"
            },
            {
              "internalType": "string",
              "name": "content",
              "type": "string"
            }
          ],
          "internalType": "struct ExampleContract.Message",
          "name": "message",
          "type": "tuple"
        }
      ],
      "stateMutability": "view",
      "type": "function"
    },
    {
      "inputs": [
        {
          "internalType": "string",
          "name": "duoName1",
          "type": "string"
        },
        {
          "internalType": "string",
          "name": "duoName2",
          "type": "string"
        }
      ],
      "name": "setDuo",
      "outputs": [],
      "stateMutability": "nonpayable",
      "type": "function"
    },
    {
      "inputs": [
        {
          "internalType": "string[2]",
          "name": "duoNames",
          "type": "string[2]"
        }
      ],
      "name": "setDuoViaArray",
      "outputs": [],
      "stateMutability": "nonpayable",
      "type": "function"
    },
    {
      "inputs": [
        {
          "internalType": "bool",
          "name": "isGone",
          "type": "bool"
        }
      ],
      "name": "setIsCovidGoneYet",
      "outputs": [],
      "stateMutability": "nonpayable",
      "type": "function"
    },
    {
      "inputs": [
        {
          "internalType": "uint256[]",
          "name": "_numberList",
          "type": "uint256[]"
        }
      ],
      "name": "setNumberList",
      "outputs": [],
      "stateMutability": "nonpayable",
      "type": "function"
    },
    {
      "inputs": [
        {
          "internalType": "string",
          "name": "_title",
          "type": "string"
        }
      ],
      "name": "setTitle",
      "outputs": [],
      "stateMutability": "nonpayable",
      "type": "function"
    },
    {
      "inputs": [],
      "name": "title",
      "outputs": [
        {
          "internalType": "string",
          "name": "",
          "type": "string"
        }
      ],
      "stateMutability": "view",
      "type": "function"
    },
    {
      "inputs": [],
      "name": "withdrawAll",
      "outputs": [],
      "stateMutability": "nonpayable",
      "type": "function"
    },
    {
      "inputs": [
        {
          "internalType": "uint256",
          "name": "amount",
          "type": "uint256"
        }
      ],
      "name": "withdrawAmount",
      "outputs": [],
      "stateMutability": "nonpayable",
      "type": "function"
    },
    {
      "stateMutability": "payable",
      "type": "receive"
    }
  ],
  "bytecode": "0x60806040526040518060400160405280600481526020017f476d20210000000000000000000000000000000000000000000000000000000081525060009080519060200190620000519291906200017f565b506040518060400160405280600381526020017f59696e0000000000000000000000000000000000000000000000000000000000815250600190805190602001906200009f9291906200017f565b506040518060400160405280600481526020017f59616e670000000000000000000000000000000000000000000000000000000081525060029080519060200190620000ed9291906200017f565b506000600360006101000a81548160ff02191690831515021790555060405180606001604052806021815260200162001fb760219139600490805190602001906200013a9291906200017f565b506040518060400160405280600460ff168152602001601460ff1681525060059060026200016a92919062000210565b503480156200017857600080fd5b50620002eb565b8280546200018d9062000286565b90600052602060002090601f016020900481019282620001b15760008555620001fd565b82601f10620001cc57805160ff1916838001178555620001fd565b82800160010185558215620001fd579182015b82811115620001fc578251825591602001919060010190620001df565b5b5090506200020c919062000267565b5090565b82805482825590600052602060002090810192821562000254579160200282015b8281111562000253578251829060ff1690559160200191906001019062000231565b5b50905062000263919062000267565b5090565b5b808211156200028257600081600090555060010162000268565b5090565b600060028204905060018216806200029f57607f821691505b60208210811415620002b657620002b5620002bc565b5b50919050565b7f4e487b7100000000000000000000000000000000000000000000000000000000600052602260045260246000fd5b611cbc80620002fb6000396000f3fe6080604052600436106100ec5760003560e01c806388ef1a051161008a578063cddf554e11610059578063cddf554e146102bf578063df0eeaec146102ea578063dff0935514610315578063f724002d1461033e576100fb565b806388ef1a05146102195780639de455e314610242578063bcb659a41461026b578063c4f9ca5d14610296576100fb565b8063419759f5116100c6578063419759f5146101a45780634a79d50c146101ae57806372910be0146101d9578063853828b614610202576100fb565b80630562b9f7146101005780630b1e7f831461012957806327e235e314610167576100fb565b366100fb576100f9610367565b005b600080fd5b34801561010c57600080fd5b50610127600480360381019061012291906110a6565b6103f6565b005b34801561013557600080fd5b50610150600480360381019061014b91906110a6565b610558565b60405161015e9291906114fa565b60405180910390f35b34801561017357600080fd5b5061018e60048036038101906101899190610ed3565b610742565b60405161019b91906115ce565b60405180910390f35b6101ac610367565b005b3480156101ba57600080fd5b506101c361075a565b6040516101d091906114d8565b60405180910390f35b3480156101e557600080fd5b5061020060048036038101906101fb9190610fab565b6107e8565b005b34801561020e57600080fd5b5061021761083a565b005b34801561022557600080fd5b50610240600480360381019061023b9190610f82565b610987565b005b34801561024e57600080fd5b5061026960048036038101906102649190610efc565b6109a4565b005b34801561027757600080fd5b50610280610a5b565b60405161028d919061149b565b60405180910390f35b3480156102a257600080fd5b506102bd60048036038101906102b89190610ff0565b610ab3565b005b3480156102cb57600080fd5b506102d4610add565b6040516102e191906114bd565b60405180910390f35b3480156102f657600080fd5b506102ff610af0565b60405161030c9190611479565b60405180910390f35b34801561032157600080fd5b5061033c60048036038101906103379190611065565b610c26565b005b34801561034a57600080fd5b5061036560048036038101906103609190610f3d565b610c9a565b005b34600660003373ffffffffffffffffffffffffffffffffffffffff1673ffffffffffffffffffffffffffffffffffffffff16815260200190815260200160002060008282546103b69190611792565b925050819055507f4d6ce1e535dbade1c23defba91e23b8f791ce5edc0cc320257a2b364e4e38426346040516103ec91906115ce565b60405180910390a1565b6000600660003373ffffffffffffffffffffffffffffffffffffffff1673ffffffffffffffffffffffffffffffffffffffff168152602001908152602001600020549050808210600490610480576040517f08c379a00000000000000000000000000000000000000000000000000000000081526004016104779190611531565b60405180910390fd5b506000828261048f91906117e8565b905080600660003373ffffffffffffffffffffffffffffffffffffffff1673ffffffffffffffffffffffffffffffffffffffff168152602001908152602001600020819055503373ffffffffffffffffffffffffffffffffffffffff166108fc849081150290604051600060405180830381858888f1935050505015801561051b573d6000803e3d6000fd5b507f5b6b431d4476a211bb7d41c20d1aab9ae2321deee0d20be3d9fc9b1093fa6e3d8360405161054b91906115ce565b60405180910390a1505050565b6007818154811061056857600080fd5b906000526020600020906003020160009150905080600001805461058b906119e7565b80601f01602080910402602001604051908101604052809291908181526020018280546105b7906119e7565b80156106045780601f106105d957610100808354040283529160200191610604565b820191906000526020600020905b8154815290600101906020018083116105e757829003601f168201915b50505050509080600101604051806040016040529081600082018054610629906119e7565b80601f0160208091040260200160405190810160405280929190818152602001828054610655906119e7565b80156106a25780601f10610677576101008083540402835291602001916106a2565b820191906000526020600020905b81548152906001019060200180831161068557829003601f168201915b505050505081526020016001820180546106bb906119e7565b80601f01602080910402602001604051908101604052809291908181526020018280546106e7906119e7565b80156107345780601f1061070957610100808354040283529160200191610734565b820191906000526020600020905b81548152906001019060200180831161071757829003601f168201915b505050505081525050905082565b60066020528060005260406000206000915090505481565b60008054610767906119e7565b80601f0160208091040260200160405190810160405280929190818152602001828054610793906119e7565b80156107e05780601f106107b5576101008083540402835291602001916107e0565b820191906000526020600020905b8154815290600101906020018083116107c357829003601f168201915b505050505081565b7f5e9f0a913b3fccf4533d3bd2b3f7da5d676fc1c1a98cd3a7da3c3572229478826000838360405161081c93929190611553565b60405180910390a1818160009190610835929190610cb0565b505050565b6000600660003373ffffffffffffffffffffffffffffffffffffffff1673ffffffffffffffffffffffffffffffffffffffff168152602001908152602001600020549050600081116108c1576040517f08c379a00000000000000000000000000000000000000000000000000000000081526004016108b89061158c565b60405180910390fd5b6000600660003373ffffffffffffffffffffffffffffffffffffffff1673ffffffffffffffffffffffffffffffffffffffff168152602001908152602001600020819055503373ffffffffffffffffffffffffffffffffffffffff166108fc829081150290604051600060405180830381858888f1935050505015801561094c573d6000803e3d6000fd5b507f5b6b431d4476a211bb7d41c20d1aab9ae2321deee0d20be3d9fc9b1093fa6e3d8160405161097c91906115ce565b60405180910390a150565b80600360006101000a81548160ff02191690831515021790555050565b806000600281106109de577f4e487b7100000000000000000000000000000000000000000000000000000000600052603260045260246000fd5b6020028101906109ee91906115e9565b600191906109fd929190610cb0565b5080600160028110610a38577f4e487b7100000000000000000000000000000000000000000000000000000000600052603260045260246000fd5b602002810190610a4891906115e9565b60029190610a57929190610cb0565b5050565b60606005805480602002602001604051908101604052809291908181526020018280548015610aa957602002820191906000526020600020905b815481526020019060010190808311610a95575b5050505050905090565b838360019190610ac4929190610cb0565b50818160029190610ad6929190610cb0565b5050505050565b600360009054906101000a900460ff1681565b610af8610d36565b604051806040016040528060018054610b10906119e7565b80601f0160208091040260200160405190810160405280929190818152602001828054610b3c906119e7565b8015610b895780601f10610b5e57610100808354040283529160200191610b89565b820191906000526020600020905b815481529060010190602001808311610b6c57829003601f168201915b5050505050815260200160028054610ba0906119e7565b80601f0160208091040260200160405190810160405280929190818152602001828054610bcc906119e7565b8015610c195780601f10610bee57610100808354040283529160200191610c19565b820191906000526020600020905b815481529060010190602001808311610bfc57829003601f168201915b5050505050815250905090565b60078190806001815401808255809150506001900390600052602060002090600302016000909190919091508181610c5e9190611bd3565b50507f17bee5b1c0ff1a83b1509d6f852a3c09f6251bab4bd117e451b3a16c9b28c13f81604051610c8f91906115ac565b60405180910390a150565b818160059190610cab929190610d5d565b505050565b828054610cbc906119e7565b90600052602060002090601f016020900481019282610cde5760008555610d25565b82601f10610cf757803560ff1916838001178555610d25565b82800160010185558215610d25579182015b82811115610d24578235825591602001919060010190610d09565b5b509050610d329190610daa565b5090565b60405180604001604052806002905b6060815260200190600190039081610d455790505090565b828054828255906000526020600020908101928215610d99579160200282015b82811115610d98578235825591602001919060010190610d7d565b5b509050610da69190610daa565b5090565b5b80821115610dc3576000816000905550600101610dab565b5090565b600081359050610dd681611c3c565b92915050565b600081905082602060020282011115610df457600080fd5b92915050565b60008083601f840112610e0c57600080fd5b8235905067ffffffffffffffff811115610e2557600080fd5b602083019150836020820283011115610e3d57600080fd5b9250929050565b600081359050610e5381611c53565b92915050565b60008083601f840112610e6b57600080fd5b8235905067ffffffffffffffff811115610e8457600080fd5b602083019150836001820283011115610e9c57600080fd5b9250929050565b600060408284031215610eb557600080fd5b81905092915050565b600081359050610ecd81611c6a565b92915050565b600060208284031215610ee557600080fd5b6000610ef384828501610dc7565b91505092915050565b600060208284031215610f0e57600080fd5b600082013567ffffffffffffffff811115610f2857600080fd5b610f3484828501610ddc565b91505092915050565b60008060208385031215610f5057600080fd5b600083013567ffffffffffffffff811115610f6a57600080fd5b610f7685828601610dfa565b92509250509250929050565b600060208284031215610f9457600080fd5b6000610fa284828501610e44565b91505092915050565b60008060208385031215610fbe57600080fd5b600083013567ffffffffffffffff811115610fd857600080fd5b610fe485828601610e59565b92509250509250929050565b6000806000806040858703121561100657600080fd5b600085013567ffffffffffffffff81111561102057600080fd5b61102c87828801610e59565b9450945050602085013567ffffffffffffffff81111561104b57600080fd5b61105787828801610e59565b925092505092959194509250565b60006020828403121561107757600080fd5b600082013567ffffffffffffffff81111561109157600080fd5b61109d84828501610ea3565b91505092915050565b6000602082840312156110b857600080fd5b60006110c684828501610ebe565b91505092915050565b60006110db8383611237565b905092915050565b60006110ef838361145b565b60208301905092915050565b600061110682611693565b61111081856116d9565b93508360208202850161112285611664565b8060005b8581101561115e578484038952815161113f85826110cf565b945061114a836116bf565b925060208a01995050600181019050611126565b50829750879550505050505092915050565b600061117b8261169e565b61118581856116e4565b93506111908361166e565b8060005b838110156111c15781516111a888826110e3565b97506111b3836116cc565b925050600181019050611194565b5085935050505092915050565b6111d78161182e565b82525050565b60006111e983856116f5565b93506111f68385846119a5565b6111ff83611aea565b840190509392505050565b60006112168385611706565b93506112238385846119a5565b61122c83611aea565b840190509392505050565b6000611242826116b4565b61124c81856116f5565b935061125c8185602086016119b4565b61126581611aea565b840191505092915050565b600061127b826116b4565b6112858185611706565b93506112958185602086016119b4565b61129e81611aea565b840191505092915050565b600081546112b6816119e7565b6112c08186611706565b945060018216600081146112db57600181146112ed57611320565b60ff1983168652602086019350611320565b6112f68561167e565b60005b83811015611318578154818901526001820191506020810190506112f9565b808801955050505b50505092915050565b6000611336601383611706565b91507f4e6f7468696e6720746f207769746864726177000000000000000000000000006000830152602082019050919050565b60006040830161137c6000840184611717565b858303600087015261138f8382846111dd565b925050506113a06020840184611717565b85830360208701526113b38382846111dd565b925050508091505092915050565b600060408301600083015184820360008601526113de8282611237565b915050602083015184820360208601526113f88282611237565b9150508091505092915050565b6000604083016114186000840184611717565b858303600087015261142b8382846111dd565b9250505061143c602084018461176e565b848203602086015261144e8282611369565b9150508091505092915050565b6114648161185a565b82525050565b6114738161185a565b82525050565b6000602082019050818103600083015261149381846110fb565b905092915050565b600060208201905081810360008301526114b58184611170565b905092915050565b60006020820190506114d260008301846111ce565b92915050565b600060208201905081810360008301526114f28184611270565b905092915050565b600060408201905081810360008301526115148185611270565b9050818103602083015261152881846113c1565b90509392505050565b6000602082019050818103600083015261154b81846112a9565b905092915050565b6000604082019050818103600083015261156d81866112a9565b9050818103602083015261158281848661120a565b9050949350505050565b600060208201905081810360008301526115a581611329565b9050919050565b600060208201905081810360008301526115c68184611405565b905092915050565b60006020820190506115e3600083018461146a565b92915050565b6000808335600160200384360303811261160257600080fd5b80840192508235915067ffffffffffffffff82111561162057600080fd5b60208301925060018202360383131561163857600080fd5b509250929050565b60008235600160400383360303811261165857600080fd5b80830191505092915050565b6000819050919050565b6000819050602082019050919050565b60008190508160005260206000209050919050565b600060029050919050565b600081519050919050565b600082905092915050565b600081519050919050565b6000602082019050919050565b6000602082019050919050565b600081905092915050565b600082825260208201905092915050565b600082825260208201905092915050565b600082825260208201905092915050565b6000808335600160200384360303811261173057600080fd5b83810192508235915060208301925067ffffffffffffffff82111561175457600080fd5b60018202360384131561176657600080fd5b509250929050565b60008235600160400383360303811261178657600080fd5b82810191505092915050565b600061179d8261185a565b91506117a88361185a565b9250827fffffffffffffffffffffffffffffffffffffffffffffffffffffffffffffffff038211156117dd576117dc611a53565b5b828201905092915050565b60006117f38261185a565b91506117fe8361185a565b92508282101561181157611810611a53565b5b828203905092915050565b60006118278261183a565b9050919050565b60008115159050919050565b600073ffffffffffffffffffffffffffffffffffffffff82169050919050565b6000819050919050565b5b8181101561188357611878600082611b15565b600181019050611865565b5050565b60006118928261185a565b9050919050565b6118a383836116a9565b67ffffffffffffffff8111156118bc576118bb611ab1565b5b6118c682546119e7565b600080601f8411601f841117156118e3576118e08561167e565b90505b601f831115611916576020601f85010481016020851015611902578190505b6119146020601f860104830182611864565b505b601f8411600181146119435760008515611931578388013590505b61193b8682611a19565b87555061199b565b601f1985168260005b8281101561197157858a0135825560018201915060208601955060208101905061194c565b8783101561198e57858a013561198a601f8a1682611a35565b8355505b6001600289020189555050505b5050505050505050565b82818337600083830152505050565b60005b838110156119d25780820151818401526020810190506119b7565b838111156119e1576000848401525b50505050565b600060028204905060018216806119ff57607f821691505b60208210811415611a1357611a12611a82565b5b50919050565b6000611a258383611a35565b9150826002028217905092915050565b6000611a4660001984600802611b08565b1980831691505092915050565b7f4e487b7100000000000000000000000000000000000000000000000000000000600052601160045260246000fd5b7f4e487b7100000000000000000000000000000000000000000000000000000000600052602260045260246000fd5b7f4e487b7100000000000000000000000000000000000000000000000000000000600052604160045260246000fd5b6000819050919050565b6000601f19601f8301169050919050565b600082821b905092915050565b600082821c905092915050565b611b27611b20611c81565b8383611c17565b5050565b600060088302611b5b7fffffffffffffffffffffffffffffffffffffffffffffffffffffffffffffffff82611afb565b611b658683611afb565b95508019841693508086168417925050509392505050565b611b88838383611899565b505050565b6000810160008301611b9f81856115e9565b611baa818386611b7d565b505050506001810160208301611bc081856115e9565b611bcb818386611b7d565b505050505050565b6000810160008301611be581856115e9565b611bf0818386611b7d565b505050506001810160208301611c068185611640565b611c108184611b8d565b5050505050565b611c2083611887565b611c34611c2c82611ae0565b848454611b2b565b825550505050565b611c458161181c565b8114611c5057600080fd5b50565b611c5c8161182e565b8114611c6757600080fd5b50565b611c738161185a565b8114611c7e57600080fd5b50565b60009056fea2646970667358221220c1e811fe3a797655b09b0754f6728ae7a62a269207d6674f0a81bb881ca7cd0a64736f6c6343000800003343616e6e6f74207769746864726177206d6f7265207468616e2062616c616e6365",
  "linkReferences": {},
  "deployedLinkReferences": {}
}