{
  "_format": "hh-sol-artifact-1",
  "contractName": "ExampleContract",
  "sourceName": "contracts/ExampleContrat.sol",
  "abi": [
    {
      "inputs": [
        {
          "components": [
            {
              "internalType": "string",
              "name": "username",
              "type": "string"
            },
            {
              "components": [
                {
                  "internalType": "string",
                  "name": "title",
                  "type": "string"
                },
                {
                  "internalType": "string",
                  "name": "content",
                  "type": "string"
                }
              ],
              "internalType": "struct ExampleContract.Message",
              "name": "message",
              "type": "tuple"
            }
          ],
          "internalType": "struct ExampleContract.Post",
          "name": "post",
          "type": "tuple"
        }
      ],
      "name": "addPost",
      "outputs": [],
      "stateMutability": "nonpayable",
      "type": "function"
    },
    {
      "inputs": [
        {
          "internalType": "address",
          "name": "",
          "type": "address"
        }
      ],
      "name": "balances",
      "outputs": [
        {
          "internalType": "uint256",
          "name": "",
          "type": "uint256"
        }
      ],
      "stateMutability": "view",
      "type": "function"
    },
    {
      "inputs": [],
      "name": "depositAmount",
      "outputs": [],
      "stateMutability": "payable",
      "type": "function"
    },
    {
      "inputs": [],
      "name": "getDuo",
      "outputs": [
        {
          "internalType": "string[2]",
          "name": "",
          "type": "string[2]"
        }
      ],
      "stateMutability": "view",
      "type": "function"
    },
    {
      "inputs": [],
      "name": "getNumberList",
      "outputs": [
        {
          "internalType": "uint256[]",
          "name": "",
          "type": "uint256[]"
        }
      ],
      "stateMutability": "view",
      "type": "function"
    },
    {
      "inputs": [],
      "name": "isCovidGoneYet",
      "outputs": [
        {
          "internalType": "bool",
          "name": "",
          "type": "bool"
        }
      ],
      "stateMutability": "view",
      "type": "function"
    },
    {
      "inputs": [
        {
          "internalType": "uint256",
          "name": "",
          "type": "uint256"
        }
      ],
      "name": "posts",
      "outputs": [
        {
          "internalType": "string",
          "name": "username",
          "type": "string"
        },
        {
          "components": [
            {
              "internalType": "string",
              "name": "title",
              "type": "string"
            },
            {
              "internalType": "string",
              "name": "content",
              "type": "string"
            }
          ],
          "internalType": "struct ExampleContract.Message",
          "name": "message",
          "type": "tuple"
        }
      ],
      "stateMutability": "view",
      "type": "function"
    },
    {
      "inputs": [
        {
          "internalType": "string",
          "name": "duoName1",
          "type": "string"
        },
        {
          "internalType": "string",
          "name": "duoName2",
          "type": "string"
        }
      ],
      "name": "setDuo",
      "outputs": [],
      "stateMutability": "nonpayable",
      "type": "function"
    },
    {
      "inputs": [
        {
          "internalType": "string[2]",
          "name": "duoNames",
          "type": "string[2]"
        }
      ],
      "name": "setDuoViaArray",
      "outputs": [],
      "stateMutability": "nonpayable",
      "type": "function"
    },
    {
      "inputs": [
        {
          "internalType": "bool",
          "name": "isGone",
          "type": "bool"
        }
      ],
      "name": "setIsCovidGoneYet",
      "outputs": [],
      "stateMutability": "nonpayable",
      "type": "function"
    },
    {
      "inputs": [
        {
          "internalType": "uint256[]",
          "name": "_numberList",
          "type": "uint256[]"
        }
      ],
      "name": "setNumberList",
      "outputs": [],
      "stateMutability": "nonpayable",
      "type": "function"
    },
    {
      "inputs": [
        {
          "internalType": "string",
          "name": "_title",
          "type": "string"
        }
      ],
      "name": "setTitle",
      "outputs": [],
      "stateMutability": "nonpayable",
      "type": "function"
    },
    {
      "inputs": [],
      "name": "title",
      "outputs": [
        {
          "internalType": "string",
          "name": "",
          "type": "string"
        }
      ],
      "stateMutability": "view",
      "type": "function"
    },
    {
      "inputs": [],
      "name": "withdrawAll",
      "outputs": [],
      "stateMutability": "nonpayable",
      "type": "function"
    },
    {
      "inputs": [
        {
          "internalType": "uint256",
          "name": "amount",
          "type": "uint256"
        }
      ],
      "name": "withdrawAmount",
      "outputs": [],
      "stateMutability": "nonpayable",
      "type": "function"
    },
    {
      "stateMutability": "payable",
      "type": "receive"
    }
  ],
  "bytecode": "0x60806040526040518060400160405280600481526020017f476d20210000000000000000000000000000000000000000000000000000000081525060009080519060200190620000519291906200017f565b506040518060400160405280600381526020017f59696e0000000000000000000000000000000000000000000000000000000000815250600190805190602001906200009f9291906200017f565b506040518060400160405280600481526020017f59616e670000000000000000000000000000000000000000000000000000000081525060029080519060200190620000ed9291906200017f565b506000600360006101000a81548160ff02191690831515021790555060405180606001604052806021815260200162001c0f60219139600490805190602001906200013a9291906200017f565b506040518060400160405280600460ff168152602001601460ff1681525060059060026200016a92919062000210565b503480156200017857600080fd5b50620002eb565b8280546200018d9062000286565b90600052602060002090601f016020900481019282620001b15760008555620001fd565b82601f10620001cc57805160ff1916838001178555620001fd565b82800160010185558215620001fd579182015b82811115620001fc578251825591602001919060010190620001df565b5b5090506200020c919062000267565b5090565b82805482825590600052602060002090810192821562000254579160200282015b8281111562000253578251829060ff1690559160200191906001019062000231565b5b50905062000263919062000267565b5090565b5b808211156200028257600081600090555060010162000268565b5090565b600060028204905060018216806200029f57607f821691505b60208210811415620002b657620002b5620002bc565b5b50919050565b7f4e487b7100000000000000000000000000000000000000000000000000000000600052602260045260246000fd5b61191480620002fb6000396000f3fe6080604052600436106100ec5760003560e01c806388ef1a051161008a578063cddf554e11610059578063cddf554e146102bf578063df0eeaec146102ea578063dff0935514610315578063f724002d1461033e576100fb565b806388ef1a05146102195780639de455e314610242578063bcb659a41461026b578063c4f9ca5d14610296576100fb565b8063419759f5116100c6578063419759f5146101a45780634a79d50c146101ae57806372910be0146101d9578063853828b614610202576100fb565b80630562b9f7146101005780630b1e7f831461012957806327e235e314610167576100fb565b366100fb576100f9610367565b005b600080fd5b34801561010c57600080fd5b5061012760048036038101906101229190610f4b565b6103bf565b005b34801561013557600080fd5b50610150600480360381019061014b9190610f4b565b6104ea565b60405161015e929190611257565b60405180910390f35b34801561017357600080fd5b5061018e60048036038101906101899190610d78565b6106d4565b60405161019b91906112b0565b60405180910390f35b6101ac610367565b005b3480156101ba57600080fd5b506101c36106ec565b6040516101d09190611235565b60405180910390f35b3480156101e557600080fd5b5061020060048036038101906101fb9190610e50565b61077a565b005b34801561020e57600080fd5b50610217610790565b005b34801561022557600080fd5b50610240600480360381019061023b9190610e27565b610863565b005b34801561024e57600080fd5b5061026960048036038101906102649190610da1565b610880565b005b34801561027757600080fd5b50610280610937565b60405161028d91906111f8565b60405180910390f35b3480156102a257600080fd5b506102bd60048036038101906102b89190610e95565b61098f565b005b3480156102cb57600080fd5b506102d46109b9565b6040516102e1919061121a565b60405180910390f35b3480156102f657600080fd5b506102ff6109cc565b60405161030c91906111d6565b60405180910390f35b34801561032157600080fd5b5061033c60048036038101906103379190610f0a565b610b02565b005b34801561034a57600080fd5b5061036560048036038101906103609190610de2565b610b3f565b005b34600660003373ffffffffffffffffffffffffffffffffffffffff1673ffffffffffffffffffffffffffffffffffffffff16815260200190815260200160002060008282546103b691906113f9565b92505081905550565b6000600660003373ffffffffffffffffffffffffffffffffffffffff1673ffffffffffffffffffffffffffffffffffffffff168152602001908152602001600020549050808210600490610449576040517f08c379a0000000000000000000000000000000000000000000000000000000008152600401610440919061128e565b60405180910390fd5b5060008282610458919061144f565b905080600660003373ffffffffffffffffffffffffffffffffffffffff1673ffffffffffffffffffffffffffffffffffffffff168152602001908152602001600020819055503373ffffffffffffffffffffffffffffffffffffffff166108fc849081150290604051600060405180830381858888f193505050501580156104e4573d6000803e3d6000fd5b50505050565b600781815481106104fa57600080fd5b906000526020600020906003020160009150905080600001805461051d9061163f565b80601f01602080910402602001604051908101604052809291908181526020018280546105499061163f565b80156105965780601f1061056b57610100808354040283529160200191610596565b820191906000526020600020905b81548152906001019060200180831161057957829003601f168201915b505050505090806001016040518060400160405290816000820180546105bb9061163f565b80601f01602080910402602001604051908101604052809291908181526020018280546105e79061163f565b80156106345780601f1061060957610100808354040283529160200191610634565b820191906000526020600020905b81548152906001019060200180831161061757829003601f168201915b5050505050815260200160018201805461064d9061163f565b80601f01602080910402602001604051908101604052809291908181526020018280546106799061163f565b80156106c65780601f1061069b576101008083540402835291602001916106c6565b820191906000526020600020905b8154815290600101906020018083116106a957829003601f168201915b505050505081525050905082565b60066020528060005260406000206000915090505481565b600080546106f99061163f565b80601f01602080910402602001604051908101604052809291908181526020018280546107259061163f565b80156107725780601f1061074757610100808354040283529160200191610772565b820191906000526020600020905b81548152906001019060200180831161075557829003601f168201915b505050505081565b81816000919061078b929190610b55565b505050565b6000600660003373ffffffffffffffffffffffffffffffffffffffff1673ffffffffffffffffffffffffffffffffffffffff1681526020019081526020016000205490506000600660003373ffffffffffffffffffffffffffffffffffffffff1673ffffffffffffffffffffffffffffffffffffffff168152602001908152602001600020819055503373ffffffffffffffffffffffffffffffffffffffff166108fc829081150290604051600060405180830381858888f1935050505015801561085f573d6000803e3d6000fd5b5050565b80600360006101000a81548160ff02191690831515021790555050565b806000600281106108ba577f4e487b7100000000000000000000000000000000000000000000000000000000600052603260045260246000fd5b6020028101906108ca91906112cb565b600191906108d9929190610b55565b5080600160028110610914577f4e487b7100000000000000000000000000000000000000000000000000000000600052603260045260246000fd5b60200281019061092491906112cb565b60029190610933929190610b55565b5050565b6060600580548060200260200160405190810160405280929190818152602001828054801561098557602002820191906000526020600020905b815481526020019060010190808311610971575b5050505050905090565b8383600191906109a0929190610b55565b508181600291906109b2929190610b55565b5050505050565b600360009054906101000a900460ff1681565b6109d4610bdb565b6040518060400160405280600180546109ec9061163f565b80601f0160208091040260200160405190810160405280929190818152602001828054610a189061163f565b8015610a655780601f10610a3a57610100808354040283529160200191610a65565b820191906000526020600020905b815481529060010190602001808311610a4857829003601f168201915b5050505050815260200160028054610a7c9061163f565b80601f0160208091040260200160405190810160405280929190818152602001828054610aa89061163f565b8015610af55780601f10610aca57610100808354040283529160200191610af5565b820191906000526020600020905b815481529060010190602001808311610ad857829003601f168201915b5050505050815250905090565b60078190806001815401808255809150506001900390600052602060002090600302016000909190919091508181610b3a919061182b565b505050565b818160059190610b50929190610c02565b505050565b828054610b619061163f565b90600052602060002090601f016020900481019282610b835760008555610bca565b82601f10610b9c57803560ff1916838001178555610bca565b82800160010185558215610bca579182015b82811115610bc9578235825591602001919060010190610bae565b5b509050610bd79190610c4f565b5090565b60405180604001604052806002905b6060815260200190600190039081610bea5790505090565b828054828255906000526020600020908101928215610c3e579160200282015b82811115610c3d578235825591602001919060010190610c22565b5b509050610c4b9190610c4f565b5090565b5b80821115610c68576000816000905550600101610c50565b5090565b600081359050610c7b81611894565b92915050565b600081905082602060020282011115610c9957600080fd5b92915050565b60008083601f840112610cb157600080fd5b8235905067ffffffffffffffff811115610cca57600080fd5b602083019150836020820283011115610ce257600080fd5b9250929050565b600081359050610cf8816118ab565b92915050565b60008083601f840112610d1057600080fd5b8235905067ffffffffffffffff811115610d2957600080fd5b602083019150836001820283011115610d4157600080fd5b9250929050565b600060408284031215610d5a57600080fd5b81905092915050565b600081359050610d72816118c2565b92915050565b600060208284031215610d8a57600080fd5b6000610d9884828501610c6c565b91505092915050565b600060208284031215610db357600080fd5b600082013567ffffffffffffffff811115610dcd57600080fd5b610dd984828501610c81565b91505092915050565b60008060208385031215610df557600080fd5b600083013567ffffffffffffffff811115610e0f57600080fd5b610e1b85828601610c9f565b92509250509250929050565b600060208284031215610e3957600080fd5b6000610e4784828501610ce9565b91505092915050565b60008060208385031215610e6357600080fd5b600083013567ffffffffffffffff811115610e7d57600080fd5b610e8985828601610cfe565b92509250509250929050565b60008060008060408587031215610eab57600080fd5b600085013567ffffffffffffffff811115610ec557600080fd5b610ed187828801610cfe565b9450945050602085013567ffffffffffffffff811115610ef057600080fd5b610efc87828801610cfe565b925092505092959194509250565b600060208284031215610f1c57600080fd5b600082013567ffffffffffffffff811115610f3657600080fd5b610f4284828501610d48565b91505092915050565b600060208284031215610f5d57600080fd5b6000610f6b84828501610d63565b91505092915050565b6000610f808383611082565b905092915050565b6000610f9483836111b8565b60208301905092915050565b6000610fab82611375565b610fb581856113bb565b935083602082028501610fc785611346565b8060005b858110156110035784840389528151610fe48582610f74565b9450610fef836113a1565b925060208a01995050600181019050610fcb565b50829750879550505050505092915050565b600061102082611380565b61102a81856113c6565b935061103583611350565b8060005b8381101561106657815161104d8882610f88565b9750611058836113ae565b925050600181019050611039565b5085935050505092915050565b61107c81611495565b82525050565b600061108d82611396565b61109781856113d7565b93506110a781856020860161160c565b6110b081611742565b840191505092915050565b60006110c682611396565b6110d081856113e8565b93506110e081856020860161160c565b6110e981611742565b840191505092915050565b600081546111018161163f565b61110b81866113e8565b9450600182166000811461112657600181146111385761116b565b60ff198316865260208601935061116b565b61114185611360565b60005b8381101561116357815481890152600182019150602081019050611144565b808801955050505b50505092915050565b600060408301600083015184820360008601526111918282611082565b915050602083015184820360208601526111ab8282611082565b9150508091505092915050565b6111c1816114c1565b82525050565b6111d0816114c1565b82525050565b600060208201905081810360008301526111f08184610fa0565b905092915050565b600060208201905081810360008301526112128184611015565b905092915050565b600060208201905061122f6000830184611073565b92915050565b6000602082019050818103600083015261124f81846110bb565b905092915050565b6000604082019050818103600083015261127181856110bb565b905081810360208301526112858184611174565b90509392505050565b600060208201905081810360008301526112a881846110f4565b905092915050565b60006020820190506112c560008301846111c7565b92915050565b600080833560016020038436030381126112e457600080fd5b80840192508235915067ffffffffffffffff82111561130257600080fd5b60208301925060018202360383131561131a57600080fd5b509250929050565b60008235600160400383360303811261133a57600080fd5b80830191505092915050565b6000819050919050565b6000819050602082019050919050565b60008190508160005260206000209050919050565b600060029050919050565b600081519050919050565b600082905092915050565b600081519050919050565b6000602082019050919050565b6000602082019050919050565b600081905092915050565b600082825260208201905092915050565b600082825260208201905092915050565b600082825260208201905092915050565b6000611404826114c1565b915061140f836114c1565b9250827fffffffffffffffffffffffffffffffffffffffffffffffffffffffffffffffff03821115611444576114436116ab565b5b828201905092915050565b600061145a826114c1565b9150611465836114c1565b925082821015611478576114776116ab565b5b828203905092915050565b600061148e826114a1565b9050919050565b60008115159050919050565b600073ffffffffffffffffffffffffffffffffffffffff82169050919050565b6000819050919050565b5b818110156114ea576114df60008261176d565b6001810190506114cc565b5050565b60006114f9826114c1565b9050919050565b61150a838361138b565b67ffffffffffffffff81111561152357611522611709565b5b61152d825461163f565b600080601f8411601f8411171561154a5761154785611360565b90505b601f83111561157d576020601f85010481016020851015611569578190505b61157b6020601f8601048301826114cb565b505b601f8411600181146115aa5760008515611598578388013590505b6115a28682611671565b875550611602565b601f1985168260005b828110156115d857858a013582556001820191506020860195506020810190506115b3565b878310156115f557858a01356115f1601f8a168261168d565b8355505b6001600289020189555050505b5050505050505050565b60005b8381101561162a57808201518184015260208101905061160f565b83811115611639576000848401525b50505050565b6000600282049050600182168061165757607f821691505b6020821081141561166b5761166a6116da565b5b50919050565b600061167d838361168d565b9150826002028217905092915050565b600061169e60001984600802611760565b1980831691505092915050565b7f4e487b7100000000000000000000000000000000000000000000000000000000600052601160045260246000fd5b7f4e487b7100000000000000000000000000000000000000000000000000000000600052602260045260246000fd5b7f4e487b7100000000000000000000000000000000000000000000000000000000600052604160045260246000fd5b6000819050919050565b6000601f19601f8301169050919050565b600082821b905092915050565b600082821c905092915050565b61177f6117786118d9565b838361186f565b5050565b6000600883026117b37fffffffffffffffffffffffffffffffffffffffffffffffffffffffffffffffff82611753565b6117bd8683611753565b95508019841693508086168417925050509392505050565b6117e0838383611500565b505050565b60008101600083016117f781856112cb565b6118028183866117d5565b50505050600181016020830161181881856112cb565b6118238183866117d5565b505050505050565b600081016000830161183d81856112cb565b6118488183866117d5565b50505050600181016020830161185e8185611322565b61186881846117e5565b5050505050565b611878836114ee565b61188c61188482611738565b848454611783565b825550505050565b61189d81611483565b81146118a857600080fd5b50565b6118b481611495565b81146118bf57600080fd5b50565b6118cb816114c1565b81146118d657600080fd5b50565b60009056fea2646970667358221220b8b9f9d0fb6640af5bb860e53dfd574d1bb5a39dfd8d7e59d59d2b81a2edd6de64736f6c6343000800003343616e6e6f74207769746864726177206d6f7265207468616e2062616c616e6365",
  "linkReferences": {},
  "deployedLinkReferences": {}
}